{
  "contractName": "daipay",
  "abi": [
    {
      "constant": true,
      "inputs": [],
      "name": "DAI",
      "outputs": [
        {
          "name": "",
          "type": "address"
        }
      ],
      "payable": false,
      "stateMutability": "view",
      "type": "function"
    },
    {
      "inputs": [
        {
          "name": "_dai",
          "type": "address"
        }
      ],
      "payable": false,
      "stateMutability": "nonpayable",
      "type": "constructor"
    },
    {
      "anonymous": false,
      "inputs": [
        {
          "indexed": false,
          "name": "employees",
          "type": "address[50]"
        },
        {
          "indexed": false,
          "name": "wages",
          "type": "uint256[50]"
        }
      ],
      "name": "DisbursePayment",
      "type": "event"
    },
    {
      "constant": false,
      "inputs": [
        {
          "name": "employees",
          "type": "address[50]"
        },
        {
          "name": "wages",
          "type": "uint256[50]"
        }
      ],
      "name": "payEmployees",
      "outputs": [],
      "payable": false,
      "stateMutability": "nonpayable",
      "type": "function"
    }
  ],
  "bytecode": "0x608060405234801561001057600080fd5b5060405160208061040d83398101806040528101908080519060200190929190505050806000806101000a81548173ffffffffffffffffffffffffffffffffffffffff021916908373ffffffffffffffffffffffffffffffffffffffff1602179055505061038a806100836000396000f30060806040526004361061004c576000357c0100000000000000000000000000000000000000000000000000000000900463ffffffff1680637524319114610051578063e0bab4c4146100d4575b600080fd5b34801561005d57600080fd5b506100d260048036038101908080610640019060328060200260405190810160405280929190826032602002808284378201915050505050919291929080610640019060328060200260405190810160405280929190826032602002808284378201915050505050919291929050505061012b565b005b3480156100e057600080fd5b506100e9610339565b604051808273ffffffffffffffffffffffffffffffffffffffff1673ffffffffffffffffffffffffffffffffffffffff16815260200191505060405180910390f35b6000806000809054906101000a900473ffffffffffffffffffffffffffffffffffffffff169150600090505b60328110156102a4578173ffffffffffffffffffffffffffffffffffffffff166323b872dd33868460328110151561018b57fe5b6020020151868560328110151561019e57fe5b60200201516040518463ffffffff167c0100000000000000000000000000000000000000000000000000000000028152600401808473ffffffffffffffffffffffffffffffffffffffff1673ffffffffffffffffffffffffffffffffffffffff1681526020018373ffffffffffffffffffffffffffffffffffffffff1673ffffffffffffffffffffffffffffffffffffffff1681526020018281526020019350505050602060405180830381600087803b15801561025b57600080fd5b505af115801561026f573d6000803e3d6000fd5b505050506040513d602081101561028557600080fd5b8101908080519060200190929190505050508080600101915050610157565b7f40c02ef8e5070151bb119ffd4b5aa46a7aa32c43c137bb78ab1fc53f25626ce984846040518083603260200280838360005b838110156102f25780820151818401526020810190506102d7565b5050505090500182603260200280838360005b83811015610320578082015181840152602081019050610305565b505050509050019250505060405180910390a150505050565b6000809054906101000a900473ffffffffffffffffffffffffffffffffffffffff16815600a165627a7a72305820012ce22af8741253b94e9366d243a9a2d388fbe8e3a3d71616f7e6ccfe8491a30029",
  "source": "pragma solidity ^0.4.24;\n\n/**\n * @title ERC20Basic\n * @dev Simpler version of ERC20 interface\n * @dev see https://github.com/ethereum/EIPs/issues/179\n */\ncontract ERC20Basic {\n    function totalSupply() public view returns (uint256);\n    function balanceOf(address who) public view returns (uint256);\n    function transfer(address to, uint256 value) public returns (bool);\n    event Transfer(address indexed from, address indexed to, uint256 value);\n}\n\n\ncontract ERC20 is ERC20Basic {\n    function allowance(address owner, address spender) public view returns (uint256);\n    function transferFrom(address from, address to, uint256 value) public returns (bool);\n    function approve(address spender, uint256 value) public returns (bool);\n    event Approval(address indexed owner, address indexed spender, uint256 value);\n}\n\ncontract daipay {\n    event DisbursePayment(address[50] employees, uint256[50] wages);\n    address public DAI;\n    constructor(address _dai) {\n        DAI = _dai;\n    }\n    function payEmployees( address[50] memory employees, uint256[50] memory wages) public {\n        ERC20 daiToken = ERC20(DAI);\n        for(uint i = 0; i < employees.length; i++) {\n            daiToken.transferFrom(msg.sender, employees[i], wages[i]);\n        }\n        emit DisbursePayment(employees, wages);\n    }\n}",
  "sourcePath": "/media/brvhrt/01D3FABF8B9DF9C0/Users/Brvhrt/Downloads/New-folder/dpy/contracts/daipay.sol",
  "compiler": {
    "name": "solc",
    "version": "0.4.25+commit.59dbf8f1.Emscripten.clang"
  },
  "schemaVersion": "2.0.2",
  "updatedAt": "2019-01-30T08:20:34.721Z"
}